:100000000C944F000C9400000C9400000C94000021
:100010000C9400000C9400000C9400000C94000060
:100020000C9400000C9400000C9400000C94000050
:100030000C9400000C9400000C9400000C94000040
:100040000C9400000C9400000C9400000C94000030
:100050000C940000000000000000000010101010C0
:100060001010101018181818181818181C1C1C1C20
:100070001C1C1C1C1F1F1F1F1F1F1F1F07070707FC
:100080000707070703030303030303030101010138
:100090000101010180C00200600194000000F89499
:1000A000EE27ECBBF1E0FBBFEBBFE5BF8DE0A2E0CC
:1000B000BB27ED938A95E9F780E094E0A0E6ED9305
:1000C0000197E9F7E6E9F0E085919591009761F0F5
:1000D000A591B59105901590BF01F00105900D9285
:1000E0000197E1F7FB01F0CFEFE5EDBFE4E0EEBFF4
:1000F000C0E6D1E00C949800AA931A930A93EA817F
:10010000EE0FEE0FEE0FE0640E2F10E0183060F4EB
:100110000A930395EC81FD813196EC83FD83319741
:10012000A491CCD01F5FF2CF198108812596089544
:10013000E0E0EABBEBBBE7BBE8BBE4BBE5BBE1BB94
:10014000E2BBE3BFE2BFECBFEFBDEEBDEDBDECBD7A
:10015000E7BDE6BDEBBDEABDE9BDE8BDE2BDE5BD7D
:10016000E4BDE3BDE9BFE5BFE4BFEAB9E0E8E8B953
:10017000E0E0E0BFE6B9EDB9E6BFA4E1D2D0E4E546
:10018000F0E0FA93EA93A0E0B7DFECE5F0E0FA9351
:10019000EA93A1E0B1DFE4E6F0E0FA93EA93A2E0AB
:1001A000ABDFECE6F0E0FA93EA93A3E0A5DFE4E747
:1001B000F0E0FA93EA93A4E09FDFECE7F0E0FA9333
:1001C000EA93A5E099DFE4E8F0E0FA93EA93A6E089
:1001D00093DFECE8F0E0FA93EA93A7E08DDF882460
:1001E0009924E9E0F0E0E815F90504F1E1E0F0E038
:1001F0003F01E4E0F0E0E615F705A4F044245524BF
:10020000E1E0F0E0E415F5052CF0B6D0F20131960E
:100210002F01F6CFAAE0B0E00E94D601F30131969B
:100220003F01E7CFF40131964F01DBCFE9E0F0E089
:100230004F01002480149004FCF0E4E0F0E03F0162
:10024000002460147004A4F044245524E1E0F0E09C
:10025000E415F5052CF090D0F20131962F01F6CF80
:10026000AAE0B0E00E94D601F30131973F01E8CF48
:10027000F40131974F01DDCFB2CFFFCFAA93EBB39B
:10028000EF70AE2FE881E07FEA2BEBBB8DE08A9523
:10029000F1F7DA9A8DE08A95F1F7DA988DE08A9590
:1002A000F1F768C0AA93A881E9DFE881E295E883C5
:1002B000A881E4DF85E88A95F1F75CC0AA93A9815B
:1002C000F1DFD89AA881EEDFD8980BC0AA93E88115
:1002D000F0E0E05AFE4FE081A981AE0FE3DFB98084
:1002E000A88022960895A2E055D0ACE0DBDFA1E023
:1002F00051D0E0E0AE2EBE2E0895AA93A881AA3078
:1003000011F0BD1440F0E0E0EA93A394AA2DDEDFE3
:10031000A881AA3079F1B394D89AA881C3DFD8987C
:1003200029C0AA93EAB3E06FEABBD29AD09AD19AD5
:10033000DA98D898D998D880E881E058E09362019B
:10034000E881E054E0936301A4E1B0E00E94D601AB
:1003500026D025D024D0A0E291DF88EC90E0019750
:10036000F1F7A8E29FDFA4E09DDFA5E89BDFA6E010
:1003700099DFB9DF219608958A92A42DA7DFA62DD3
:10038000BCDFE3E1E819EA93A42DA0DFE8E0E61979
:10039000AE2FB3CF87DFA3E0B0E00C94D601A0E38B
:1003A0006DDF88EC90E00197F1F70895109639F031
:1003B000A89580ED97E00197F1F71197C9F7089597
:00000001FF
