:100000000C9434000C9461000C946E000C9400006D
:100010000C9400000C9400000C9400000C94000060
:100020000C9400000C9400000C9400000C94000050
:100030000C9400000C9400000C9400000C94000040
:100040000C9400000C9400000C9400000C94000030
:100050000C9400003F065B4F666D7D077F6F0000CC
:10006000010005005E000000F894EE27ECBBF1E013
:10007000FBBFEBBFE5BF8DE0A2E0BB27ED938A9508
:10008000E9F780E094E0A0E6ED930197E9F7E0E678
:10009000F0E085919591009761F0A591B59105905B
:1000A0001590BF01F00105900D920197E1F7FB015A
:1000B000F0CFEFE5EDBFE4E0EEBFC0E6D1E00C9499
:1000C00080000A92EA93FA93EFB7EA93E9E05E16AA
:1000D00010F4539446D0829BFECF0CC00A92EA9350
:1000E000FA93EFB7EA93E0E0E51510F45A9439D0AB
:1000F000839BFECFE991EFBFF991E99109901895A3
:10010000EFEFEABBE0E0EBBBE7BBE8BBE4BBE5BB82
:10011000E1BBE2BBE3BFE2BFECBFEFBDEEBDEDBDB7
:10012000ECBDE7BDE6BDEBBDEABDE9BDE8BDE2BDA6
:10013000E5BDE4BDE3BDE9BFEBB7E06CEBBFEAE0D2
:10014000E5BFE0E0E4BFE0ECEABFE0E0EAB9E0E808
:10015000E8B9E0E0E0BFE6B9EDB9E6BF7894FFCFDB
:10016000FFCFE52DF0E0EC5AFF4F04900BBA089555
:00000001FF
