:040000000C943E001E
:100004000C9400000C9400000C9400000C9400006C
:100014000C9400000C9400000C9400000C9400005C
:100024000C9400000C9400000C9400000C9400004C
:100034000C9400000C9400000C9400000C9400003C
:100044000C9400000C9400000C9400000C9400002C
:100054003700380039002F003400350036002A00FC
:100064003100320033002D0030003D002B0080C0F1
:100074000200600172000000F894EE27ECBBF1E08E
:10008400FBBFEBBFE5BF8DE0A2E0BB27ED938A95F4
:10009400E9F780E094E0A0E6ED930197E9F7E4E75F
:1000A400F0E085919591009761F0A591B591059047
:1000B4001590BF01F00105900D920197E1F7FB0146
:1000C400F0CFEFE5EDBFE4E0EEBFC0E6D1E00C9485
:1000D4006B00E0E0EABBEBBBE7BBE8BBE4BBE5BB22
:1000E400E1BBE2BBE3BFE2BFECBFEFBDEEBDEDBDE4
:1000F400ECBDE7BDE6BDEBBDEABDE9BDE8BDE2BDD3
:10010400E5BDE4BDE3BDE9BFE5BFE4BFEAB9E0E8AE
:10011400E8B9E0E0E0BFE6B9EDB9E6BFA4E146D155
:10012400EFE0E4BBE0EFE5BBA898A99AAA9AAB9AE2
:100134009C9906C09D9B04C09E9B02C09F9901C0D0
:1001440004C05FD1A4E5B0E060D19C9B06C09D993A
:1001540004C09E9B02C09F9901C004C052D1A6E571
:10016400B0E053D19C9B06C09D9B04C09E9902C0E5
:100174009F9901C004C045D1A8E5B0E046D19C9B3D
:1001840006C09D9B04C09E9B02C09F9B01C004C0EF
:1001940038D1AAE5B0E039D1A89AA998AA9AAB9A1D
:1001A4009C9906C09D9B04C09E9B02C09F9901C060
:1001B40004C027D1ACE5B0E028D19C9B06C09D9932
:1001C40004C09E9B02C09F9901C004C01AD1AEE531
:1001D400B0E01BD19C9B06C09D9B04C09E9902C0AD
:1001E4009F9901C004C00DD1A0E6B0E00ED19C9B44
:1001F40006C09D9B04C09E9B02C09F9B01C004C07F
:1002040000D1A2E6B0E001D1A89AA99AAA98AB9A23
:100214009C9906C09D9B04C09E9B02C09F9901C0EF
:1002240004C0EFD0A4E6B0E0F0D09C9B06C09D993A
:1002340004C09E9B02C09F9901C004C0E2D0A6E600
:10024400B0E0E3D09C9B06C09D9B04C09E9902C075
:100254009F9901C004C0D5D0A8E6B0E0D6D09C9B3D
:1002640006C09D9B04C09E9B02C09F9B01C004C00E
:10027400C8D0AAE6B0E0C9D0A89AA99AAA9AAB981D
:100284009C9906C09D9B04C09E9B02C09F9901C07F
:1002940005C05AD0A2E3B0E00E9418029C9B06C09D
:1002A4009D9904C09E9B02C09F9901C004C0A9D01F
:1002B400ACE6B0E0AAD09C9B06C09D9B04C09E996E
:1002C40002C09F9901C004C09CD0AEE6B0E09DD0AE
:1002D4009C9B06C09D9B04C09E9B02C09F9B01C02B
:1002E40004C08FD0A0E7B0E090D01ECFFFCFAA9378
:1002F400EBB3EF70AE2FE881E07FEA2BEBBB8DE030
:100304008A95F1F7DA9A8DE08A95F1F7DA988DE01B
:100314008A95F1F774C0AA93A881E9DFE881E29590
:10032400E883A881E4DF85E88A95F1F768C0AA9399
:10033400E881F0E0E05AFE4FE081A981AE0FEBDFE7
:100344005980488022960895A2E064D0ACE0E3DFAF
:10035400A1E060D0E0E04E2E5E2E0895AA93A8811D
:10036400AA3011F0571448F0E0E0EA934394A42D26
:10037400DEDFA881AA3009F442C05394D89AA88138
:10038400CADFD8983CC0BA93AA931A93E981FA8138
:100394003196E983FA833197E4911E2FE03019F006
:1003A400A12FDCDFF3CF188123960895AA93EAB333
:1003B400E06FEABBD29AD09AD19ADA98D898D998B1
:1003C4007880E881E058E0936201E881E054E093AA
:1003D4006301A4E1B0E00E94180221D020D01FD014
:1003E400A0E285DF88EC90E00197F1F7A8E293DFC3
:1003F400A4E091DFA5E88FDFA6E08DDFA5DF2196DD
:100404000895E0E0EA93A0E092CFBDDFA2E3B0E07C
:100414000C94180280DFA3E0B0E00C941802A0E36F
:1004240066DF88EC90E00197F1F70895109639F0B3
:10043400A89580ED97E00197F1F71197C9F7089512
:00000001FF
