:060000000C9433000C9487
:1000060000000C9400000C9400000C9400000C946A
:1000160000000C9400000C9400000C9400000C945A
:1000260000000C9400000C9400000C9400000C944A
:1000360000000C9400000C9400000C9400000C943A
:1000460000000C9400000C9400000C9400000000CA
:1000560080C0020004005400020060015600000047
:10006600F894EE27ECBBF1E0FBBFEBBFE5BF8DE0FC
:10007600A2E0BB27ED938A95E9F780E094E0A0E63D
:10008600ED930197E9F7E8E5F0E085919591009702
:1000960061F0A591B59105901590BF01F00105900D
:1000A6000D920197E1F7FB01F0CFEFE5EDBFE4E03C
:1000B600EEBFC0E6D1E00C946000E0E0EABBEBBB2B
:1000C600E7BBE8BBE4BBE5BBE1BBE2BBE3BFE2BF2A
:1000D600ECBFEFBDEEBDEDBDECBDE7BDE6BDEBBDD6
:1000E600EABDE9BDE8BDE2BDE5BDE4BDE3BDE9BFEE
:1000F600E5BFE4BFEAB9E0E8E8B9E0E0E0BFE6B9A9
:10010600EDB9E6BFA4E10E946102EFE0E4BBE0EFD7
:10011600E5BBA898A99AAA9AAB9A9D992CC09D99D5
:1001260023C00E948C029D9906C0E8E37E2E0E94A1
:100136008C020E948F029D9906C0E1E67E2E0E94E7
:100146008C020E948F029D9906C0E2E67E2E0E94D6
:100156008C020E948F029D9906C0E3E67E2E0E94C5
:100166008C020E948F02DBCF0E948C020E948F02BB
:10017600F20131962F019C9924C09C991DC00E94C2
:100186008C029C9906C0E7E37E2E0E948C020E9498
:100196008F029C9904C0E4E67E2EBBD1BDD19C990A
:1001A60004C0E5E67E2EB5D1B7D19C9904C0E6E63B
:1001B6007E2EAFD1B1D1E1CFACD1AED1F201319625
:1001C6002F019E9921C09E991AC0A3D19E9904C061
:1001D600E9E37E2E9ED1A0D19E9904C0E9E67E2E4B
:1001E60098D19AD19E9904C0E8E67E2E92D194D1F8
:1001F6009E9904C0E7E67E2E8CD18ED1E4CF89D1BC
:100206008BD1F20131962F01A89AA998AA9AAB9A96
:100216009C9921C09C991AC07CD19C9904C0E4E3A6
:100226007E2E77D179D19C9904C0E7E67E2E71D1D6
:1002360073D19C9904C0EAE67E2E6BD16DD19C9950
:1002460004C0ECE67E2E65D167D1E4CF62D164D1DD
:10025600F20131962F019D9921C09D991AC059D15D
:100266009D9904C0E5E37E2E54D156D19D9904C0D4
:10027600EDE67E2E4ED150D19D9904C0EEE67E2E3F
:1002860048D14AD19D9904C0EFE67E2E42D144D191
:10029600E4CF3FD141D1F20131962F019E9921C081
:1002A6009E991AC036D19E9904C0E6E37E2E31D1BE
:1002B60033D19E9904C0E0E77E2E2BD12DD19E9995
:1002C60004C0E1E77E2E25D127D19E9904C0E2E73E
:1002D6007E2E1FD121D1E4CF1CD11ED1F201319641
:1002E6002F01A89AA99AAA98AB9A9C9921C09C9981
:1002F6001AC00FD19C9904C0E1E37E2E0AD10CD11D
:100306009C9904C0E3E77E2E04D106D19C9904C0D3
:10031600E4E77E2EFED000D19C9904C0E5E77E2E50
:10032600F8D0FAD0E4CFF5D0F7D0F20131962F010C
:100336009D9921C09D991AC0ECD09D9904C0E2E315
:100346007E2EE7D0E9D09D9904C0E6E77E2EE1D067
:10035600E3D09D9904C0E7E77E2EDBD0DDD09D99E2
:1003660004C0E8E77E2ED5D0D7D0E4CFD2D0D4D003
:10037600F20131962F019E9921C09E991AC0C9D0CB
:100386009E9904C0E3E37E2EC4D0C6D09E9904C0D5
:10039600E9E77E2EBED0C0D09E9904C0EAE77E2E45
:1003A600B8D0BAD09E9904C0EAE77E2EB2D0B4D0B7
:1003B600E4CFAFD0B1D0F20131962F01A89AA99A15
:1003C600AA9AAB989C990AC09C9906C0E0E0EA9369
:1003D600A0E049D055D0F8CF442455249D9921C09A
:1003E6009D991AC096D09D9904C0E0E37E2E91D0C7
:1003F60093D09D9904C0E1E67E2E8BD08DD09D9939
:1004060004C0E2E67E2E85D087D09D9904C0E3E63F
:100416007E2E7FD081D0E4CF7CD07ED0F201319683
:100426002F0177CEFFCFAA93EBB3EF70AE2FE88103
:10043600E07FEA2BEBBB8DE08A95F1F7DA9A8DE047
:100446008A95F1F7DA988DE08A95F1F760C0AA935C
:10045600A881E9DFE881E295E883A881E4DF85E801
:100466008A95F1F754C0AA93E881F0E0E05AFE4F6E
:10047600E081A981AE0FEBDF69809880229608950E
:10048600A2E050D0ACE0E3DFA1E04CD0E0E09E2E4D
:100496006E2E0895AA93A881AA3011F0681440F030
:1004A600E0E0EA939394A92DDEDFA881AA3079F1E2
:1004B6006394D89AA881CBDFD89829C0AA93EAB3C7
:1004C600E06FEABBD29AD09AD19ADA98D898D9989E
:1004D6008880E881E058E0936201E881E054E09387
:1004E6006301A4E1B0E00E94A10221D020D01FD078
:1004F600A0E299DF88EC90E00197F1F7A8E2A7DF88
:10050600A4E0A5DFA5E8A3DFA6E0A1DFB9DF219679
:1005160008954A92A0E0A7CFA72DBCDFA4E6B0E0DD
:100526000C94A10294DFA3E0B0E00C94A102A0E336
:100536007ADF88EC90E00197F1F70895109639F08C
:10054600A89580ED97E00197F1F71197C9F70895FF
:00000001FF
