:020000000C945E
:100002004F000C9400000C9400000C9400000C941F
:1000120000000C9400000C9400000C9400000C945E
:1000220000000C9400000C9400000C9400000C944E
:1000320000000C9400000C9400000C9400000C943E
:1000420000000C9400000C9400000C9400000C942E
:10005200000000000000000000001F1F0000000060
:1000620000001F1F1F00000000001F1F1F1F0000B5
:1000720000001F1F1F1F1F0000001F1F1F1F1F1F29
:1000820000001F1F1F1F1F1F1F001F1F1F1F1F1FDB
:100092001F1F80C00200600194000000F894EE2748
:1000A200ECBBF1E0FBBFEBBFE5BF8DE0A2E0BB27FD
:1000B200ED938A95E9F780E094E0A0E6ED9301974D
:1000C200E9F7E6E9F0E085919591009761F0A59155
:1000D200B59105901590BF01F00105900D92019721
:1000E200E1F7FB01F0CFEFE5EDBFE4E0EEBFC0E6E4
:1000F200D1E00C949800AA931A930A93EA81EE0F26
:10010200EE0FEE0FE0640E2F10E0183060F40A9349
:100112000395EC81FD813196EC83FD833197A491A7
:10012200CED01F5FF2CF1981088125960895E0E0B5
:10013200EABBEBBBE7BBE8BBE4BBE5BBE1BBE2BBB5
:10014200E3BFE2BFECBFEFBDEEBDEDBDECBDE7BD71
:10015200E6BDEBBDEABDE9BDE8BDE2BDE5BDE4BD7E
:10016200E3BDE9BFE5BFE4BFEAB9E0E8E8B9E0E032
:10017200E0BFE6B9EDB9E6BFA4E1D4D0E4E5F0E032
:10018200FA93EA93A0E0B7DFECE5F0E0FA93EA93A2
:10019200A1E0B1DFE4E6F0E0FA93EA93A2E0ABDF9C
:1001A200ECE6F0E0FA93EA93A3E0A5DFE4E7F0E0FF
:1001B200FA93EA93A4E09FDFECE7F0E0FA93EA9384
:1001C200A5E099DFE4E8F0E0FA93EA93A6E093DF92
:1001D200ECE8F0E0FA93EA93A7E08DDF6624772457
:1001E200E1E0F0E0E615F705FCF088249924E7E069
:1001F200F0E0E815F905A4F044245524E3E1F0E029
:10020200E415F5052CF0B9D0F20131962F01F6CFA5
:10021200AAE0B0E00E94CF01F40131964F01E7CF8E
:10022200F30131963F01DCCFE1E0F0E03F01002431
:100232006014700414F1E7E0F0E04F010024801430
:100242009004A4F044245524E3E1F0E0E415F5051C
:100252002CF093D0F20131962F01F6CFAAE0B0E054
:100262000E94CF01F40131974F01E8CF062C0728F5
:1002720021F0F30131973F01DACFB0CFFFCFAA933C
:10028200EBB3EF70AE2FE881E07FEA2BEBBB8DE0A2
:100292008A95F1F7DA9A8DE08A95F1F7DA988DE08E
:1002A2008A95F1F768C0AA93A881E9DFE881E2950F
:1002B200E883A881E4DF85E88A95F1F75CC0AA9318
:1002C200A981F1DFD89AA881EEDFD8980BC0AA9352
:1002D200E881F0E0E05AFE4FE081A981AE0FE3DF52
:1002E200B980A88022960895A2E04CD0ACE0DBDF72
:1002F200A1E048D0E0E0AE2EBE2E0895AA93A881D8
:10030200AA3011F0BD1440F0E0E0EA93A394AA2DC4
:10031200DEDFA881AA3079F1B394D89AA881C3DF2D
:10032200D89829C0AA93EAB3E06FEABBD29AD09ACE
:10033200D19ADA98D898D998D880E881E058E09391
:100342006201E881E054E0936301A4E1B0E00E941D
:10035200CF011DD01CD01BD0A0E291DF88EC90E031
:100362000197F1F7A8E29FDFA4E09DDFA5E89BDFFC
:10037200A6E099DFB9DF219608954A92A62DA7DF5C
:10038200A82DBCCF90DFA3E0B0E00C94CF01A0E396
:1003920076DF88EC90E00197F1F70895109639F036
:1003A200A89580ED97E00197F1F71197C9F70895A5
:00000001FF
