:0A0000000C9443000C9400000C94D3
:10000A0000000C9400000C9400000C9400000C9466
:10001A0000000C9400000C9400000C9400000C9456
:10002A0000000C9400000C9400000C9400000C9446
:10003A0000000C9400000C9400000C9400000C9436
:10004A0000000C9400000C94000000000000020460
:10005A000800000400021E00000000000E021E003C
:10006A000400000000021E00040000000000020458
:10007A00080080C0020060017C000000F894EE27AE
:10008A00ECBBF1E0FBBFEBBFE5BF8DE0A2E0BB2715
:10009A00ED938A95E9F780E094E0A0E6ED93019765
:1000AA00E9F7EEE7F0E085919591009761F0A59167
:1000BA00B59105901590BF01F00105900D92019739
:1000CA00E1F7FB01F0CFEFE5EDBFE4E0EEBFC0E6FC
:1000DA00D1E00C948C00AA931A930A93EA81EE0F4A
:1000EA00EE0FEE0FE0640E2F10E0183060F40A9362
:1000FA000395EC81FD813196EC83FD833197A491C0
:10010A007BD01F5FF2CF1981088125960895E0E020
:10011A00EABBEBBBE7BBE8BBE4BBE5BBE1BBE2BBCD
:10012A00E3BFE2BFECBFEFBDEEBDEDBDECBDE7BD89
:10013A00E6BDEBBDEABDE9BDE8BDE2BDE5BDE4BD96
:10014A00E3BDE9BFE5BFE4BFEAB9E0E8E8B9E0E04A
:10015A00E0BFE6B9EDB9E6BFA0E181D0E4E5F0E0A1
:10016A00FA93EA93A0E0B7DFECE5F0E0FA93EA93BA
:10017A00A1E0B1DFE4E6F0E0FA93EA93A2E0ABDFB4
:10018A00ECE6F0E0FA93EA93A3E0A5DFE4E7F0E017
:10019A00FA93EA93A4E09FDFE0E0EA93A0E034D088
:1001AA00A4E049D0A3E047D0A2E045D0A1E043D0E3
:1001BA00A0E041D0FFCFFFCFAA93EBB3EF70AE2FF1
:1001CA00E881E07FEA2BEBBB8DE08A95F1F7DA9ABA
:1001DA008DE08A95F1F7DA988DE08A95F1F768C093
:1001EA00AA93A881E9DFE881E295E883A881E4DFA0
:1001FA0085E88A95F1F75CC0AA93A981F1DFD89ABC
:10020A00A881EEDFD8980BC0AA93E881F0E0E05A03
:10021A00FE4FE081A981AE0FE3DF59804880229624
:10022A000895A2E047D0ACE0DBDFA1E043D0E0E0F4
:10023A004E2E5E2E0895AA93A881AA3011F0571463
:10024A0040F0E0E0EA934394A42DDEDFA881AA30CF
:10025A0079F15394D89AA881C3DFD89829C0AA9370
:10026A00EAB3E06FEABBD29AD09AD19ADA98D898D0
:10027A00D9987880E881E058E0936201E881E054F7
:10028A00E0936301A4E1B0E00E946B0118D017D09B
:10029A0016D0A0E291DF88EC90E00197F1F7A8E28E
:1002AA009FDFA4E09DDFA5E89BDFA6E099DFB9DF29
:1002BA002196089595DFA3E0B0E00C946B01A0E3CA
:1002CA007BDF88EC90E00197F1F70895109639F0FA
:1002DA00A89580ED97E00197F1F71197C9F708956E
:00000001FF
