:060000000C944F000C946B
:1000060000000C9400000C9400000C9400000C946A
:1000160000000C9400000C9400000C9400000C945A
:1000260000000C9400000C9400000C9400000C944A
:1000360000000C9400000C9400000C9400000C943A
:1000460000000C9400000C9400000C9400000000CA
:100056000000000000001F1F0000000000001F1F1E
:100066001F00000000001F1F1F1F000000001F1FB1
:100076001F1F1F0000001F1F1F1F1F1F00001F1F25
:100086001F1F1F1F1F001F1F1F1F1F1F1F1F80C097
:100096000200600194000000F894EE27ECBBF1E04A
:1000A600FBBFEBBFE5BF8DE0A2E0BB27ED938A95D2
:1000B600E9F780E094E0A0E6ED930197E9F7E6E939
:1000C600F0E085919591009761F0A591B591059025
:1000D6001590BF01F00105900D920197E1F7FB0124
:1000E600F0CFEFE5EDBFE4E0EEBFC0E6D1E00C9463
:1000F6009800AA931A930A93EA81EE0FEE0FEE0F79
:10010600E0640E2F10E0183060F40A930395EC813A
:10011600FD813196EC83FD833197A491E7D01F5F73
:10012600F2CF1981088125960895E0E0EABBEBBB82
:10013600E7BBE8BBE4BBE5BBE1BBE2BBE3BFE2BFB9
:10014600ECBFEFBDEEBDEDBDECBDE7BDE6BDEBBD65
:10015600EABDE9BDE8BDE2BDE5BDE4BDE3BDE9BF7D
:10016600E5BFE4BFEAB9E0E8E8B9E0E0E0BFE6B938
:10017600EDB9E6BFA4E1EDD0E4E5F0E0FA93EA9349
:10018600A0E0B7DFECE5F0E0FA93EA93A1E0B1DF97
:10019600E4E6F0E0FA93EA93A2E0ABDFECE6F0E007
:1001A600FA93EA93A3E0A5DFE4E7F0E0FA93EA9393
:1001B600A4E09FDFECE7F0E0FA93EA93A5E099DF8D
:1001C600E4E8F0E0FA93EA93A6E093DFECE8F0E0E7
:1001D600FA93EA93A7E08DDF44245524E3E1F0E0A7
:1001E600E415F50594F0E0D0E2D0DED0E6D0DCD020
:1001F600EAD0DAD0EED0D8D0F2D0D6D0F6D0D4D05D
:10020600FAD0F20131962F01E9CF44245524E3E1D7
:10021600F0E0E415F50594F0F4D0C9D0F2D0CDD0D5
:10022600F0D0D1D0EED0D5D0ECD0D9D0EAD0DDD038
:10023600E8D0E1D0F20131962F01E9CFE3E1F0E019
:100246002F01002440145004A4F0DBD0D4D0D9D020
:10025600CCD0D7D0C4D0D5D0BCD0D3D0B4D0D1D0C8
:10026600ACD0CFD0A4D0CDD0CFD0F20131972F01D2
:10027600E8CFE3E1F0E02F01002440145004A4F09D
:1002860093D0B9D091D0B1D08FD0A9D08DD0A1D0F4
:100296008BD099D089D091D087D089D085D0B4D051
:1002A600F20131972F01E8CF97CFFFCFAA93EBB397
:1002B600EF70AE2FE881E07FEA2BEBBB8DE08A95ED
:1002C600F1F7DA9A8DE08A95F1F7DA988DE08A955A
:1002D600F1F768C0AA93A881E9DFE881E295E8838F
:1002E600A881E4DF85E88A95F1F75CC0AA93A98125
:1002F600F1DFD89AA881EEDFD8980BC0AA93E881DF
:10030600F0E0E05AFE4FE081A981AE0FE3DF79808D
:10031600688022960895A2E07DD0ACE0DBDFA1E004
:1003260079D0E0E06E2E7E2E0895AA93A881AA3099
:1003360011F0791440F0E0E0EA936394A62DDEDF35
:10034600A881AA3079F17394D89AA881C3DFD89886
:1003560029C0AA93EAB3E06FEABBD29AD09AD19A9F
:10036600DA98D898D9989880E881E058E0936201A5
:10037600E881E054E0936301A4E1B0E00E94190231
:100386004ED04DD04CD0A0E291DF88EC90E00197A2
:10039600F1F7A8E29FDFA4E09DDFA5E89BDFA6E0DA
:1003A60099DFB9DF219608954A92A0E0A7CFA1E090
:1003B600BCDFAAE0B0E00C941902A2E0B6DFAAE026
:1003C600B0E00C941902A3E0B0DFAAE0B0E00C9410
:1003D6001902A4E0AADFAAE0B0E00C941902A5E095
:1003E600A4DFAAE0B0E00C941902A6E09EDFAAE022
:1003F600B0E00C941902A7E098DFAAE0B0E00C94F4
:1004060019024A92A1E07ACFA0E08FDFAAE0B0E01D
:100416000C9419025FDFA3E0B0E00C941902A0E38C
:1004260045DF88EC90E00197F1F70895109639F0D2
:10043600A89580ED97E00197F1F71197C9F7089510
:00000001FF
