:0C0000000C942A000C9400000C940000EA
:10000C000C9400000C9400000C9400000C94000064
:10001C000C9400000C9400000C9400000C94000054
:10002C000C9400000C9400000C9400000C94000044
:10003C000C9400000C9400000C9400000C94000034
:10004C000C9400000C940000F894EE27ECBBF1E04B
:10005C00FBBFEBBFE5BF8DE0A2E0BB27ED938A951C
:10006C00E9F780E094E0A0E6ED930197E9F7EFE57E
:10007C00EDBFE4E0EEBFC0E6D1E00C944500E0E05B
:10008C00EABBEBBBE7BBE8BBEFEFE4BBE0E0E5BBF7
:10009C00E1BBE2BBE3BFE2BFECBFEFBDEEBDEDBD2C
:1000AC00ECBDE7BDE6BDEBBDEABDE9BDE8BDE2BD1B
:1000BC00E5BDE4BDE3BDE9BFE5BFE4BFEAB9E0E8F7
:1000CC00E8B9E0E0E0BFE6B9EDB9E6BF79B2552496
:1000DC004424E8E04E1670F4E42DA1E0B0E00E9458
:1000EC008500A72DB0E0EA23FB23309709F0539449
:1000FC004394EFCFE8E0E519E5BBE8CFFFCFEE2363
:10010C000E2EFD0121F0EE0FFF1F0A94E1F708956A
:00000001FF
