:0C0000000C942F000C9400000C940000E5
:10000C000C9400000C9400000C9400000C94000064
:10001C000C9400000C9400000C9400000C94000054
:10002C000C9400000C9400000C9400000C94000044
:10003C000C9400000C9400000C9400000C94000034
:10004C000C9400000C94000080C00200600154006D
:10005C000000F894EE27ECBBF1E0FBBFEBBFE5BF73
:10006C008DE0A2E0BB27ED938A95E9F780E094E060
:10007C00A0E6ED930197E9F7E6E5F0E0859195911F
:10008C00009761F0A591B59105901590BF01F00115
:10009C0005900D920197E1F7FB01F0CFEFE5EDBF75
:1000AC00E4E0EEBFC0E6D1E00C945C00E0E0EABB1B
:1000BC00EBBBE0EFE7BBEFE0E8BBE0E0E4BBE5BBAC
:1000CC00EFEFE1BBE2BBE0E0E3BFE2BFECBFEFBDB3
:1000DC00EEBDEDBDECBDE7BDE6BDEBBDEABDE9BDDA
:1000EC00E8BDE2BDE5BDE4BDE3BDE9BFE5BFE4BFEE
:1000FC00EAB9E0E8E8B9E0E0E0BFE6B9EDB9E6BF9F
:10010C00A4E165D0B39B35C046B25524E7E04E223E
:10011C005524F201309711F4EEEF29C0E130A0E044
:10012C00FA0711F4EDEF23C0E230A0E0FA0711F466
:10013C00EBEF1DC0E330A0E0FA0711F4E7EF17C0B6
:10014C00E430A0E0FA0711F4EFEE11C0E530A0E0C6
:10015C00FA0711F4EFED0BC0E630A0E0FA0711F44A
:10016C00EFEB05C0E730A0E0FA0711F4EFE7E2BBD4
:10017C0002C0EFEFE2BBC6CFFFCFAA93EBB3EF7099
:10018C00AE2FE881E07FEA2BEBBB8DE08A95F1F78F
:10019C00DA9A8DE08A95F1F7DA988DE08A95F1F785
:1001AC003FC0AA93A881E9DFE881E295E883A881A2
:1001BC00E4DF85E88A95F1F733C0A2E033D0ACE0F8
:1001CC00F0DFA1E02FD0E0E06E2E7E2E0895AA93F2
:1001DC00EAB3E06FEABBD29AD09AD19ADA98D8985F
:1001EC00D9989880E881E058E0936201E881E05466
:1001FC00E0936301A4E1B0E00E94240118D017D071
:10020C0016D0A0E2BADF88EC90E00197F1F7A8E2F3
:10021C00C8DFA4E0C6DFA5E8C4DFA6E0C2DFCDDFFF
:10022C0021960895BEDFA3E0B0E00C942401A0E376
:10023C00A4DF88EC90E00197F1F70895109639F05F
:10024C00A89580ED97E00197F1F71197C9F70895FC
:00000001FF
